{
  "_format": "hh-sol-artifact-1",
  "contractName": "BoxV2",
  "sourceName": "contracts/V2.sol",
  "abi": [
    {
      "anonymous": false,
      "inputs": [
        {
          "indexed": false,
          "internalType": "uint8",
          "name": "version",
          "type": "uint8"
        }
      ],
      "name": "Initialized",
      "type": "event"
    },
    {
      "inputs": [],
      "name": "area",
      "outputs": [
        {
          "internalType": "uint256",
          "name": "",
          "type": "uint256"
        }
      ],
      "stateMutability": "view",
      "type": "function"
    },
    {
      "inputs": [
        {
          "internalType": "uint256",
          "name": "_length",
          "type": "uint256"
        },
        {
          "internalType": "uint256",
          "name": "_width",
          "type": "uint256"
        }
      ],
      "name": "initialize",
      "outputs": [],
      "stateMutability": "nonpayable",
      "type": "function"
    },
    {
      "inputs": [],
      "name": "length",
      "outputs": [
        {
          "internalType": "uint256",
          "name": "",
          "type": "uint256"
        }
      ],
      "stateMutability": "view",
      "type": "function"
    },
    {
      "inputs": [],
      "name": "perimeter",
      "outputs": [
        {
          "internalType": "uint256",
          "name": "",
          "type": "uint256"
        }
      ],
      "stateMutability": "view",
      "type": "function"
    },
    {
      "inputs": [],
      "name": "width",
      "outputs": [
        {
          "internalType": "uint256",
          "name": "",
          "type": "uint256"
        }
      ],
      "stateMutability": "view",
      "type": "function"
    }
  ],
  "bytecode": "0x608060405234801561001057600080fd5b5061058d806100206000396000f3fe608060405234801561001057600080fd5b50600436106100575760003560e01c80631f7b6d321461005c5780632cf6598f1461007a5780634d41892f146100985780639ededf77146100b6578063e4a30116146100d4575b600080fd5b6100646100f0565b60405161007191906103bd565b60405180910390f35b6100826100f6565b60405161008f91906103bd565b60405180910390f35b6100a0610124565b6040516100ad91906103bd565b60405180910390f35b6100be61013b565b6040516100cb91906103bd565b60405180910390f35b6100ee60048036038101906100e99190610305565b610141565b005b60025481565b60006002600154610107919061043f565b60028054610115919061043f565b61011f91906103e9565b905090565b6000600154600254610136919061043f565b905090565b60015481565b600061014d60016101dd565b90508015610171576001600060016101000a81548160ff0219169083151502179055505b826002819055508160018190555080156101d85760008060016101000a81548160ff0219169083151502179055507f7f26b83ff96e1f2b6a682f133852f6798a09c465da95921460cefb384740249860016040516101cf9190610382565b60405180910390a15b505050565b60008060019054906101000a900460ff16156102545760018260ff1614801561020c575061020a306102cd565b155b61024b576040517f08c379a00000000000000000000000000000000000000000000000000000000081526004016102429061039d565b60405180910390fd5b600090506102c8565b8160ff1660008054906101000a900460ff1660ff16106102a9576040517f08c379a00000000000000000000000000000000000000000000000000000000081526004016102a09061039d565b60405180910390fd5b816000806101000a81548160ff021916908360ff160217905550600190505b919050565b6000808273ffffffffffffffffffffffffffffffffffffffff163b119050919050565b6000813590506102ff81610540565b92915050565b6000806040838503121561031857600080fd5b6000610326858286016102f0565b9250506020610337858286016102f0565b9150509250929050565b61034a816104b0565b82525050565b600061035d602e836103d8565b9150610368826104f1565b604082019050919050565b61037c81610499565b82525050565b60006020820190506103976000830184610341565b92915050565b600060208201905081810360008301526103b681610350565b9050919050565b60006020820190506103d26000830184610373565b92915050565b600082825260208201905092915050565b60006103f482610499565b91506103ff83610499565b9250827fffffffffffffffffffffffffffffffffffffffffffffffffffffffffffffffff03821115610434576104336104c2565b5b828201905092915050565b600061044a82610499565b915061045583610499565b9250817fffffffffffffffffffffffffffffffffffffffffffffffffffffffffffffffff048311821515161561048e5761048d6104c2565b5b828202905092915050565b6000819050919050565b600060ff82169050919050565b60006104bb826104a3565b9050919050565b7f4e487b7100000000000000000000000000000000000000000000000000000000600052601160045260246000fd5b7f496e697469616c697a61626c653a20636f6e747261637420697320616c72656160008201527f647920696e697469616c697a6564000000000000000000000000000000000000602082015250565b61054981610499565b811461055457600080fd5b5056fea2646970667358221220a6492b8d6566afcb850d9a909f471ee962212d482ec729f077b35861b30e31e964736f6c63430008040033",
  "linkReferences": {},
  "deployedLinkReferences": {}
}