{
  "contracts/V2.sol": {
    "BoxV2": {
      "abi": [
        {
          "anonymous": false,
          "inputs": [
            {
              "indexed": false,
              "internalType": "uint8",
              "name": "version",
              "type": "uint8"
            }
          ],
          "name": "Initialized",
          "type": "event"
        },
        {
          "inputs": [],
          "name": "area",
          "outputs": [
            {
              "internalType": "uint256",
              "name": "",
              "type": "uint256"
            }
          ],
          "stateMutability": "view",
          "type": "function"
        },
        {
          "inputs": [
            {
              "internalType": "uint256",
              "name": "_length",
              "type": "uint256"
            },
            {
              "internalType": "uint256",
              "name": "_width",
              "type": "uint256"
            }
          ],
          "name": "initialize",
          "outputs": [],
          "stateMutability": "nonpayable",
          "type": "function"
        },
        {
          "inputs": [],
          "name": "length",
          "outputs": [
            {
              "internalType": "uint256",
              "name": "",
              "type": "uint256"
            }
          ],
          "stateMutability": "view",
          "type": "function"
        },
        {
          "inputs": [],
          "name": "perimeter",
          "outputs": [
            {
              "internalType": "uint256",
              "name": "",
              "type": "uint256"
            }
          ],
          "stateMutability": "view",
          "type": "function"
        },
        {
          "inputs": [],
          "name": "width",
          "outputs": [
            {
              "internalType": "uint256",
              "name": "",
              "type": "uint256"
            }
          ],
          "stateMutability": "view",
          "type": "function"
        }
      ],
      "evm": {
        "bytecode": {
          "linkReferences": {},
          "object": "608060405234801561001057600080fd5b5061058d806100206000396000f3fe608060405234801561001057600080fd5b50600436106100575760003560e01c80631f7b6d321461005c5780632cf6598f1461007a5780634d41892f146100985780639ededf77146100b6578063e4a30116146100d4575b600080fd5b6100646100f0565b60405161007191906103bd565b60405180910390f35b6100826100f6565b60405161008f91906103bd565b60405180910390f35b6100a0610124565b6040516100ad91906103bd565b60405180910390f35b6100be61013b565b6040516100cb91906103bd565b60405180910390f35b6100ee60048036038101906100e99190610305565b610141565b005b60025481565b60006002600154610107919061043f565b60028054610115919061043f565b61011f91906103e9565b905090565b6000600154600254610136919061043f565b905090565b60015481565b600061014d60016101dd565b90508015610171576001600060016101000a81548160ff0219169083151502179055505b826002819055508160018190555080156101d85760008060016101000a81548160ff0219169083151502179055507f7f26b83ff96e1f2b6a682f133852f6798a09c465da95921460cefb384740249860016040516101cf9190610382565b60405180910390a15b505050565b60008060019054906101000a900460ff16156102545760018260ff1614801561020c575061020a306102cd565b155b61024b576040517f08c379a00000000000000000000000000000000000000000000000000000000081526004016102429061039d565b60405180910390fd5b600090506102c8565b8160ff1660008054906101000a900460ff1660ff16106102a9576040517f08c379a00000000000000000000000000000000000000000000000000000000081526004016102a09061039d565b60405180910390fd5b816000806101000a81548160ff021916908360ff160217905550600190505b919050565b6000808273ffffffffffffffffffffffffffffffffffffffff163b119050919050565b6000813590506102ff81610540565b92915050565b6000806040838503121561031857600080fd5b6000610326858286016102f0565b9250506020610337858286016102f0565b9150509250929050565b61034a816104b0565b82525050565b600061035d602e836103d8565b9150610368826104f1565b604082019050919050565b61037c81610499565b82525050565b60006020820190506103976000830184610341565b92915050565b600060208201905081810360008301526103b681610350565b9050919050565b60006020820190506103d26000830184610373565b92915050565b600082825260208201905092915050565b60006103f482610499565b91506103ff83610499565b9250827fffffffffffffffffffffffffffffffffffffffffffffffffffffffffffffffff03821115610434576104336104c2565b5b828201905092915050565b600061044a82610499565b915061045583610499565b9250817fffffffffffffffffffffffffffffffffffffffffffffffffffffffffffffffff048311821515161561048e5761048d6104c2565b5b828202905092915050565b6000819050919050565b600060ff82169050919050565b60006104bb826104a3565b9050919050565b7f4e487b7100000000000000000000000000000000000000000000000000000000600052601160045260246000fd5b7f496e697469616c697a61626c653a20636f6e747261637420697320616c72656160008201527f647920696e697469616c697a6564000000000000000000000000000000000000602082015250565b61054981610499565b811461055457600080fd5b5056fea2646970667358221220a6492b8d6566afcb850d9a909f471ee962212d482ec729f077b35861b30e31e964736f6c63430008040033",
          "opcodes": "PUSH1 0x80 PUSH1 0x40 MSTORE CALLVALUE DUP1 ISZERO PUSH2 0x10 JUMPI PUSH1 0x0 DUP1 REVERT JUMPDEST POP PUSH2 0x58D DUP1 PUSH2 0x20 PUSH1 0x0 CODECOPY PUSH1 0x0 RETURN INVALID PUSH1 0x80 PUSH1 0x40 MSTORE CALLVALUE DUP1 ISZERO PUSH2 0x10 JUMPI PUSH1 0x0 DUP1 REVERT JUMPDEST POP PUSH1 0x4 CALLDATASIZE LT PUSH2 0x57 JUMPI PUSH1 0x0 CALLDATALOAD PUSH1 0xE0 SHR DUP1 PUSH4 0x1F7B6D32 EQ PUSH2 0x5C JUMPI DUP1 PUSH4 0x2CF6598F EQ PUSH2 0x7A JUMPI DUP1 PUSH4 0x4D41892F EQ PUSH2 0x98 JUMPI DUP1 PUSH4 0x9EDEDF77 EQ PUSH2 0xB6 JUMPI DUP1 PUSH4 0xE4A30116 EQ PUSH2 0xD4 JUMPI JUMPDEST PUSH1 0x0 DUP1 REVERT JUMPDEST PUSH2 0x64 PUSH2 0xF0 JUMP JUMPDEST PUSH1 0x40 MLOAD PUSH2 0x71 SWAP2 SWAP1 PUSH2 0x3BD JUMP JUMPDEST PUSH1 0x40 MLOAD DUP1 SWAP2 SUB SWAP1 RETURN JUMPDEST PUSH2 0x82 PUSH2 0xF6 JUMP JUMPDEST PUSH1 0x40 MLOAD PUSH2 0x8F SWAP2 SWAP1 PUSH2 0x3BD JUMP JUMPDEST PUSH1 0x40 MLOAD DUP1 SWAP2 SUB SWAP1 RETURN JUMPDEST PUSH2 0xA0 PUSH2 0x124 JUMP JUMPDEST PUSH1 0x40 MLOAD PUSH2 0xAD SWAP2 SWAP1 PUSH2 0x3BD JUMP JUMPDEST PUSH1 0x40 MLOAD DUP1 SWAP2 SUB SWAP1 RETURN JUMPDEST PUSH2 0xBE PUSH2 0x13B JUMP JUMPDEST PUSH1 0x40 MLOAD PUSH2 0xCB SWAP2 SWAP1 PUSH2 0x3BD JUMP JUMPDEST PUSH1 0x40 MLOAD DUP1 SWAP2 SUB SWAP1 RETURN JUMPDEST PUSH2 0xEE PUSH1 0x4 DUP1 CALLDATASIZE SUB DUP2 ADD SWAP1 PUSH2 0xE9 SWAP2 SWAP1 PUSH2 0x305 JUMP JUMPDEST PUSH2 0x141 JUMP JUMPDEST STOP JUMPDEST PUSH1 0x2 SLOAD DUP2 JUMP JUMPDEST PUSH1 0x0 PUSH1 0x2 PUSH1 0x1 SLOAD PUSH2 0x107 SWAP2 SWAP1 PUSH2 0x43F JUMP JUMPDEST PUSH1 0x2 DUP1 SLOAD PUSH2 0x115 SWAP2 SWAP1 PUSH2 0x43F JUMP JUMPDEST PUSH2 0x11F SWAP2 SWAP1 PUSH2 0x3E9 JUMP JUMPDEST SWAP1 POP SWAP1 JUMP JUMPDEST PUSH1 0x0 PUSH1 0x1 SLOAD PUSH1 0x2 SLOAD PUSH2 0x136 SWAP2 SWAP1 PUSH2 0x43F JUMP JUMPDEST SWAP1 POP SWAP1 JUMP JUMPDEST PUSH1 0x1 SLOAD DUP2 JUMP JUMPDEST PUSH1 0x0 PUSH2 0x14D PUSH1 0x1 PUSH2 0x1DD JUMP JUMPDEST SWAP1 POP DUP1 ISZERO PUSH2 0x171 JUMPI PUSH1 0x1 PUSH1 0x0 PUSH1 0x1 PUSH2 0x100 EXP DUP2 SLOAD DUP2 PUSH1 0xFF MUL NOT AND SWAP1 DUP4 ISZERO ISZERO MUL OR SWAP1 SSTORE POP JUMPDEST DUP3 PUSH1 0x2 DUP2 SWAP1 SSTORE POP DUP2 PUSH1 0x1 DUP2 SWAP1 SSTORE POP DUP1 ISZERO PUSH2 0x1D8 JUMPI PUSH1 0x0 DUP1 PUSH1 0x1 PUSH2 0x100 EXP DUP2 SLOAD DUP2 PUSH1 0xFF MUL NOT AND SWAP1 DUP4 ISZERO ISZERO MUL OR SWAP1 SSTORE POP PUSH32 0x7F26B83FF96E1F2B6A682F133852F6798A09C465DA95921460CEFB3847402498 PUSH1 0x1 PUSH1 0x40 MLOAD PUSH2 0x1CF SWAP2 SWAP1 PUSH2 0x382 JUMP JUMPDEST PUSH1 0x40 MLOAD DUP1 SWAP2 SUB SWAP1 LOG1 JUMPDEST POP POP POP JUMP JUMPDEST PUSH1 0x0 DUP1 PUSH1 0x1 SWAP1 SLOAD SWAP1 PUSH2 0x100 EXP SWAP1 DIV PUSH1 0xFF AND ISZERO PUSH2 0x254 JUMPI PUSH1 0x1 DUP3 PUSH1 0xFF AND EQ DUP1 ISZERO PUSH2 0x20C JUMPI POP PUSH2 0x20A ADDRESS PUSH2 0x2CD JUMP JUMPDEST ISZERO JUMPDEST PUSH2 0x24B JUMPI PUSH1 0x40 MLOAD PUSH32 0x8C379A000000000000000000000000000000000000000000000000000000000 DUP2 MSTORE PUSH1 0x4 ADD PUSH2 0x242 SWAP1 PUSH2 0x39D JUMP JUMPDEST PUSH1 0x40 MLOAD DUP1 SWAP2 SUB SWAP1 REVERT JUMPDEST PUSH1 0x0 SWAP1 POP PUSH2 0x2C8 JUMP JUMPDEST DUP2 PUSH1 0xFF AND PUSH1 0x0 DUP1 SLOAD SWAP1 PUSH2 0x100 EXP SWAP1 DIV PUSH1 0xFF AND PUSH1 0xFF AND LT PUSH2 0x2A9 JUMPI PUSH1 0x40 MLOAD PUSH32 0x8C379A000000000000000000000000000000000000000000000000000000000 DUP2 MSTORE PUSH1 0x4 ADD PUSH2 0x2A0 SWAP1 PUSH2 0x39D JUMP JUMPDEST PUSH1 0x40 MLOAD DUP1 SWAP2 SUB SWAP1 REVERT JUMPDEST DUP2 PUSH1 0x0 DUP1 PUSH2 0x100 EXP DUP2 SLOAD DUP2 PUSH1 0xFF MUL NOT AND SWAP1 DUP4 PUSH1 0xFF AND MUL OR SWAP1 SSTORE POP PUSH1 0x1 SWAP1 POP JUMPDEST SWAP2 SWAP1 POP JUMP JUMPDEST PUSH1 0x0 DUP1 DUP3 PUSH20 0xFFFFFFFFFFFFFFFFFFFFFFFFFFFFFFFFFFFFFFFF AND EXTCODESIZE GT SWAP1 POP SWAP2 SWAP1 POP JUMP JUMPDEST PUSH1 0x0 DUP2 CALLDATALOAD SWAP1 POP PUSH2 0x2FF DUP2 PUSH2 0x540 JUMP JUMPDEST SWAP3 SWAP2 POP POP JUMP JUMPDEST PUSH1 0x0 DUP1 PUSH1 0x40 DUP4 DUP6 SUB SLT ISZERO PUSH2 0x318 JUMPI PUSH1 0x0 DUP1 REVERT JUMPDEST PUSH1 0x0 PUSH2 0x326 DUP6 DUP3 DUP7 ADD PUSH2 0x2F0 JUMP JUMPDEST SWAP3 POP POP PUSH1 0x20 PUSH2 0x337 DUP6 DUP3 DUP7 ADD PUSH2 0x2F0 JUMP JUMPDEST SWAP2 POP POP SWAP3 POP SWAP3 SWAP1 POP JUMP JUMPDEST PUSH2 0x34A DUP2 PUSH2 0x4B0 JUMP JUMPDEST DUP3 MSTORE POP POP JUMP JUMPDEST PUSH1 0x0 PUSH2 0x35D PUSH1 0x2E DUP4 PUSH2 0x3D8 JUMP JUMPDEST SWAP2 POP PUSH2 0x368 DUP3 PUSH2 0x4F1 JUMP JUMPDEST PUSH1 0x40 DUP3 ADD SWAP1 POP SWAP2 SWAP1 POP JUMP JUMPDEST PUSH2 0x37C DUP2 PUSH2 0x499 JUMP JUMPDEST DUP3 MSTORE POP POP JUMP JUMPDEST PUSH1 0x0 PUSH1 0x20 DUP3 ADD SWAP1 POP PUSH2 0x397 PUSH1 0x0 DUP4 ADD DUP5 PUSH2 0x341 JUMP JUMPDEST SWAP3 SWAP2 POP POP JUMP JUMPDEST PUSH1 0x0 PUSH1 0x20 DUP3 ADD SWAP1 POP DUP2 DUP2 SUB PUSH1 0x0 DUP4 ADD MSTORE PUSH2 0x3B6 DUP2 PUSH2 0x350 JUMP JUMPDEST SWAP1 POP SWAP2 SWAP1 POP JUMP JUMPDEST PUSH1 0x0 PUSH1 0x20 DUP3 ADD SWAP1 POP PUSH2 0x3D2 PUSH1 0x0 DUP4 ADD DUP5 PUSH2 0x373 JUMP JUMPDEST SWAP3 SWAP2 POP POP JUMP JUMPDEST PUSH1 0x0 DUP3 DUP3 MSTORE PUSH1 0x20 DUP3 ADD SWAP1 POP SWAP3 SWAP2 POP POP JUMP JUMPDEST PUSH1 0x0 PUSH2 0x3F4 DUP3 PUSH2 0x499 JUMP JUMPDEST SWAP2 POP PUSH2 0x3FF DUP4 PUSH2 0x499 JUMP JUMPDEST SWAP3 POP DUP3 PUSH32 0xFFFFFFFFFFFFFFFFFFFFFFFFFFFFFFFFFFFFFFFFFFFFFFFFFFFFFFFFFFFFFFFF SUB DUP3 GT ISZERO PUSH2 0x434 JUMPI PUSH2 0x433 PUSH2 0x4C2 JUMP JUMPDEST JUMPDEST DUP3 DUP3 ADD SWAP1 POP SWAP3 SWAP2 POP POP JUMP JUMPDEST PUSH1 0x0 PUSH2 0x44A DUP3 PUSH2 0x499 JUMP JUMPDEST SWAP2 POP PUSH2 0x455 DUP4 PUSH2 0x499 JUMP JUMPDEST SWAP3 POP DUP2 PUSH32 0xFFFFFFFFFFFFFFFFFFFFFFFFFFFFFFFFFFFFFFFFFFFFFFFFFFFFFFFFFFFFFFFF DIV DUP4 GT DUP3 ISZERO ISZERO AND ISZERO PUSH2 0x48E JUMPI PUSH2 0x48D PUSH2 0x4C2 JUMP JUMPDEST JUMPDEST DUP3 DUP3 MUL SWAP1 POP SWAP3 SWAP2 POP POP JUMP JUMPDEST PUSH1 0x0 DUP2 SWAP1 POP SWAP2 SWAP1 POP JUMP JUMPDEST PUSH1 0x0 PUSH1 0xFF DUP3 AND SWAP1 POP SWAP2 SWAP1 POP JUMP JUMPDEST PUSH1 0x0 PUSH2 0x4BB DUP3 PUSH2 0x4A3 JUMP JUMPDEST SWAP1 POP SWAP2 SWAP1 POP JUMP JUMPDEST PUSH32 0x4E487B7100000000000000000000000000000000000000000000000000000000 PUSH1 0x0 MSTORE PUSH1 0x11 PUSH1 0x4 MSTORE PUSH1 0x24 PUSH1 0x0 REVERT JUMPDEST PUSH32 0x496E697469616C697A61626C653A20636F6E747261637420697320616C726561 PUSH1 0x0 DUP3 ADD MSTORE PUSH32 0x647920696E697469616C697A6564000000000000000000000000000000000000 PUSH1 0x20 DUP3 ADD MSTORE POP JUMP JUMPDEST PUSH2 0x549 DUP2 PUSH2 0x499 JUMP JUMPDEST DUP2 EQ PUSH2 0x554 JUMPI PUSH1 0x0 DUP1 REVERT JUMPDEST POP JUMP INVALID LOG2 PUSH5 0x6970667358 0x22 SLT KECCAK256 0xA6 0x49 0x2B DUP14 PUSH6 0x66AFCB850D9A SWAP1 SWAP16 SELFBALANCE 0x1E 0xE9 PUSH3 0x212D48 0x2E 0xC7 0x29 CREATE PUSH24 0xB35861B30E31E964736F6C63430008040033000000000000 "
        },
        "methodIdentifiers": {
          "area()": "4d41892f",
          "initialize(uint256,uint256)": "e4a30116",
          "length()": "1f7b6d32",
          "perimeter()": "2cf6598f",
          "width()": "9ededf77"
        }
      },
      "storageLayout": {
        "storage": [
          {
            "astId": 6,
            "contract": "contracts/V2.sol:BoxV2",
            "label": "_initialized",
            "offset": 0,
            "slot": "0",
            "type": "t_uint8"
          },
          {
            "astId": 9,
            "contract": "contracts/V2.sol:BoxV2",
            "label": "_initializing",
            "offset": 1,
            "slot": "0",
            "type": "t_bool"
          },
          {
            "astId": 391,
            "contract": "contracts/V2.sol:BoxV2",
            "label": "width",
            "offset": 0,
            "slot": "1",
            "type": "t_uint256"
          },
          {
            "astId": 393,
            "contract": "contracts/V2.sol:BoxV2",
            "label": "length",
            "offset": 0,
            "slot": "2",
            "type": "t_uint256"
          }
        ],
        "types": {
          "t_bool": {
            "encoding": "inplace",
            "label": "bool",
            "numberOfBytes": "1"
          },
          "t_uint256": {
            "encoding": "inplace",
            "label": "uint256",
            "numberOfBytes": "32"
          },
          "t_uint8": {
            "encoding": "inplace",
            "label": "uint8",
            "numberOfBytes": "1"
          }
        }
      }
    }
  }
}