{
  "_format": "hh-sol-artifact-1",
  "contractName": "BoxV1",
  "sourceName": "contracts/V1.sol",
  "abi": [
    {
      "anonymous": false,
      "inputs": [
        {
          "indexed": false,
          "internalType": "uint8",
          "name": "version",
          "type": "uint8"
        }
      ],
      "name": "Initialized",
      "type": "event"
    },
    {
      "inputs": [],
      "name": "area",
      "outputs": [
        {
          "internalType": "uint256",
          "name": "",
          "type": "uint256"
        }
      ],
      "stateMutability": "view",
      "type": "function"
    },
    {
      "inputs": [
        {
          "internalType": "uint256",
          "name": "_length",
          "type": "uint256"
        },
        {
          "internalType": "uint256",
          "name": "_width",
          "type": "uint256"
        }
      ],
      "name": "initialize",
      "outputs": [],
      "stateMutability": "nonpayable",
      "type": "function"
    },
    {
      "inputs": [],
      "name": "length",
      "outputs": [
        {
          "internalType": "uint256",
          "name": "",
          "type": "uint256"
        }
      ],
      "stateMutability": "view",
      "type": "function"
    },
    {
      "inputs": [],
      "name": "width",
      "outputs": [
        {
          "internalType": "uint256",
          "name": "",
          "type": "uint256"
        }
      ],
      "stateMutability": "view",
      "type": "function"
    }
  ],
  "bytecode": "0x608060405234801561001057600080fd5b506104e0806100206000396000f3fe608060405234801561001057600080fd5b506004361061004c5760003560e01c80631f7b6d32146100515780634d41892f1461006f5780639ededf771461008d578063e4a30116146100ab575b600080fd5b6100596100c7565b6040516100669190610366565b60405180910390f35b6100776100cd565b6040516100849190610366565b60405180910390f35b6100956100e4565b6040516100a29190610366565b60405180910390f35b6100c560048036038101906100c091906102ae565b6100ea565b005b60025481565b60006001546002546100df9190610392565b905090565b60015481565b60006100f66001610186565b9050801561011a576001600060016101000a81548160ff0219169083151502179055505b826002819055508160018190555080156101815760008060016101000a81548160ff0219169083151502179055507f7f26b83ff96e1f2b6a682f133852f6798a09c465da95921460cefb38474024986001604051610178919061032b565b60405180910390a15b505050565b60008060019054906101000a900460ff16156101fd5760018260ff161480156101b557506101b330610276565b155b6101f4576040517f08c379a00000000000000000000000000000000000000000000000000000000081526004016101eb90610346565b60405180910390fd5b60009050610271565b8160ff1660008054906101000a900460ff1660ff1610610252576040517f08c379a000000000000000000000000000000000000000000000000000000000815260040161024990610346565b60405180910390fd5b816000806101000a81548160ff021916908360ff160217905550600190505b919050565b6000808273ffffffffffffffffffffffffffffffffffffffff163b119050919050565b6000813590506102a881610493565b92915050565b600080604083850312156102c157600080fd5b60006102cf85828601610299565b92505060206102e085828601610299565b9150509250929050565b6102f381610403565b82525050565b6000610306602e83610381565b915061031182610444565b604082019050919050565b610325816103ec565b82525050565b600060208201905061034060008301846102ea565b92915050565b6000602082019050818103600083015261035f816102f9565b9050919050565b600060208201905061037b600083018461031c565b92915050565b600082825260208201905092915050565b600061039d826103ec565b91506103a8836103ec565b9250817fffffffffffffffffffffffffffffffffffffffffffffffffffffffffffffffff04831182151516156103e1576103e0610415565b5b828202905092915050565b6000819050919050565b600060ff82169050919050565b600061040e826103f6565b9050919050565b7f4e487b7100000000000000000000000000000000000000000000000000000000600052601160045260246000fd5b7f496e697469616c697a61626c653a20636f6e747261637420697320616c72656160008201527f647920696e697469616c697a6564000000000000000000000000000000000000602082015250565b61049c816103ec565b81146104a757600080fd5b5056fea2646970667358221220931f287c3db892be9cb5dd571e41e1c292e137d0504a7cc3711c09463e24ebd764736f6c63430008040033",
  "linkReferences": {},
  "deployedLinkReferences": {}
}